{
  "_format": "hh-sol-artifact-1",
  "contractName": "Adoption",
  "sourceName": "contracts/Adoption.sol",
  "abi": [
    {
      "inputs": [
        {
          "internalType": "uint256",
          "name": "petId",
          "type": "uint256"
        }
      ],
      "name": "adopt",
      "outputs": [
        {
          "internalType": "uint256",
          "name": "",
          "type": "uint256"
        }
      ],
      "stateMutability": "nonpayable",
      "type": "function"
    },
    {
      "inputs": [
        {
          "internalType": "uint256",
          "name": "",
          "type": "uint256"
        }
      ],
      "name": "adopters",
      "outputs": [
        {
          "internalType": "address",
          "name": "",
          "type": "address"
        }
      ],
      "stateMutability": "view",
      "type": "function"
    },
    {
      "inputs": [
        {
          "internalType": "uint256",
          "name": "petId",
          "type": "uint256"
        }
      ],
      "name": "getAdopterOf",
      "outputs": [
        {
          "internalType": "address",
          "name": "",
          "type": "address"
        }
      ],
      "stateMutability": "view",
      "type": "function"
    },
    {
      "inputs": [],
      "name": "getAdopters",
      "outputs": [
        {
          "internalType": "address[16]",
          "name": "",
          "type": "address[16]"
        }
      ],
      "stateMutability": "view",
      "type": "function"
    }
  ],
  "bytecode": "0x608060405234801561001057600080fd5b506104bd806100206000396000f3fe608060405234801561001057600080fd5b506004361061004c5760003560e01c80633de4eb171461005157806343ae80d31461006f5780638588b2c51461009f578063ab2d1840146100cf575b600080fd5b6100596100ff565b60405161006691906103d0565b60405180910390f35b610089600480360381019061008491906102f0565b610180565b60405161009691906103b5565b60405180910390f35b6100b960048036038101906100b491906102f0565b6101b6565b6040516100c691906103ec565b60405180910390f35b6100e960048036038101906100e491906102f0565b610254565b6040516100f691906103b5565b60405180910390f35b6101076102b8565b6000601080602002604051908101604052809291908260108015610176576020028201915b8160009054906101000a900473ffffffffffffffffffffffffffffffffffffffff1673ffffffffffffffffffffffffffffffffffffffff168152602001906001019080831161012c575b5050505050905090565b6000816010811061019057600080fd5b016000915054906101000a900473ffffffffffffffffffffffffffffffffffffffff1681565b60008082101580156101c95750600f8211155b6101d257600080fd5b336000836010811061020d577f4e487b7100000000000000000000000000000000000000000000000000000000600052603260045260246000fd5b0160006101000a81548173ffffffffffffffffffffffffffffffffffffffff021916908373ffffffffffffffffffffffffffffffffffffffff160217905550819050919050565b600080826010811061028f577f4e487b7100000000000000000000000000000000000000000000000000000000600052603260045260246000fd5b0160009054906101000a900473ffffffffffffffffffffffffffffffffffffffff169050919050565b604051806102000160405280601090602082028036833780820191505090505090565b6000813590506102ea81610470565b92915050565b60006020828403121561030257600080fd5b6000610310848285016102db565b91505092915050565b60006103258383610331565b60208301905092915050565b61033a81610434565b82525050565b61034981610434565b82525050565b61035881610411565b6103628184610429565b925061036d82610407565b8060005b8381101561039e5781516103858782610319565b96506103908361041c565b925050600181019050610371565b505050505050565b6103af81610466565b82525050565b60006020820190506103ca6000830184610340565b92915050565b6000610200820190506103e6600083018461034f565b92915050565b600060208201905061040160008301846103a6565b92915050565b6000819050919050565b600060109050919050565b6000602082019050919050565b600081905092915050565b600061043f82610446565b9050919050565b600073ffffffffffffffffffffffffffffffffffffffff82169050919050565b6000819050919050565b61047981610466565b811461048457600080fd5b5056fea26469706673582212208ae715650a5a0e224afb8148a72905a07078baa478c45ef5876929413ae22ae464736f6c63430008040033",
  "linkReferences": {},
  "deployedLinkReferences": {}
}